{
  "contractName": "OwnedUpgradeabilityProxy",
  "abi": [
    {
      "anonymous": false,
      "inputs": [
        {
          "indexed": false,
          "internalType": "address",
          "name": "previousOwner",
          "type": "address"
        },
        {
          "indexed": false,
          "internalType": "address",
          "name": "newOwner",
          "type": "address"
        }
      ],
      "name": "ProxyOwnershipTransferred",
      "type": "event"
    },
    {
      "anonymous": false,
      "inputs": [
        {
          "indexed": true,
          "internalType": "address",
          "name": "implementation",
          "type": "address"
        }
      ],
      "name": "Upgraded",
      "type": "event"
    },
    {
      "inputs": [],
      "name": "implementation",
      "outputs": [
        {
          "internalType": "address",
          "name": "impl",
          "type": "address"
        }
      ],
      "stateMutability": "view",
      "type": "function"
    },
    {
      "inputs": [],
      "name": "upgradeabilityProxy",
      "outputs": [],
      "stateMutability": "nonpayable",
      "type": "function"
    },
    {
      "stateMutability": "payable",
      "type": "receive"
    },
    {
      "inputs": [],
      "name": "ownedUpgradeabilityProxy",
      "outputs": [],
      "stateMutability": "nonpayable",
      "type": "function"
    },
    {
      "inputs": [],
      "name": "proxyOwner",
      "outputs": [
        {
          "internalType": "address",
          "name": "owner",
          "type": "address"
        }
      ],
      "stateMutability": "view",
      "type": "function"
    },
    {
      "inputs": [
        {
          "internalType": "address",
          "name": "newOwner",
          "type": "address"
        }
      ],
      "name": "transferProxyOwnership",
      "outputs": [],
      "stateMutability": "nonpayable",
      "type": "function"
    },
    {
      "inputs": [
        {
          "internalType": "address",
          "name": "implementation",
          "type": "address"
        }
      ],
      "name": "upgradeTo",
      "outputs": [],
      "stateMutability": "nonpayable",
      "type": "function"
    },
    {
      "inputs": [
        {
          "internalType": "address",
          "name": "implementation",
          "type": "address"
        }
      ],
      "name": "upgradeToAndCall",
      "outputs": [
        {
          "internalType": "bool",
          "name": "",
          "type": "bool"
        }
      ],
      "stateMutability": "payable",
      "type": "function"
    }
  ],
  "bytecode": "0x608060405234801561001057600080fd5b506106a1806100206000396000f3fe6080604052600436106100745760003560e01c80634a7b46fe1161004e5780634a7b46fe1461016f5780635c60da1b14610186578063bc0db52a146101b1578063f1739cae146101c8576100e6565b8063025313a2146100eb5780633659cfe614610116578063388e9e0a1461013f576100e6565b366100e65760006100836101f1565b9050600073ffffffffffffffffffffffffffffffffffffffff168173ffffffffffffffffffffffffffffffffffffffff1614156100bf57600080fd5b60405136600082376000803683855af43d806000843e81600081146100e2578184f35b8184fd5b600080fd5b3480156100f757600080fd5b5061010061021f565b60405161010d91906105ac565b60405180910390f35b34801561012257600080fd5b5061013d60048036038101906101389190610536565b61024d565b005b61015960048036038101906101549190610536565b610298565b60405161016691906105f0565b60405180910390f35b34801561017b57600080fd5b50610184610362565b005b34801561019257600080fd5b5061019b6101f1565b6040516101a891906105ac565b60405180910390f35b3480156101bd57600080fd5b506101c6610364565b005b3480156101d457600080fd5b506101ef60048036038101906101ea9190610536565b61036f565b005b6000807f7050c9e0f4ca769c69bd3a8ef740bc37934f8e2c036e5a723fd8ee048ed3f8c39050805491505090565b6000807f337c729c04082e3bdd94ba7d2b5a8a642f3a138702366a91707825373a2029ba9050805491505090565b61025561021f565b73ffffffffffffffffffffffffffffffffffffffff163373ffffffffffffffffffffffffffffffffffffffff161461028c57600080fd5b61029581610434565b50565b60006102a261021f565b73ffffffffffffffffffffffffffffffffffffffff163373ffffffffffffffffffffffffffffffffffffffff16146102d957600080fd5b6102e28261024d565b60003073ffffffffffffffffffffffffffffffffffffffff163460405161030890610597565b60006040518083038185875af1925050503d8060008114610345576040519150601f19603f3d011682016040523d82523d6000602084013e61034a565b606091505b505090508061035857600080fd5b6001915050919050565b565b61036d336104c9565b565b61037761021f565b73ffffffffffffffffffffffffffffffffffffffff163373ffffffffffffffffffffffffffffffffffffffff16146103ae57600080fd5b600073ffffffffffffffffffffffffffffffffffffffff168173ffffffffffffffffffffffffffffffffffffffff1614156103e857600080fd5b7f5a3e66efaa1e445ebd894728a69d6959842ea1e97bd79b892797106e270efcd961041161021f565b826040516104209291906105c7565b60405180910390a1610431816104c9565b50565b600061043e6101f1565b90508173ffffffffffffffffffffffffffffffffffffffff168173ffffffffffffffffffffffffffffffffffffffff16141561047957600080fd5b610482826104f5565b8173ffffffffffffffffffffffffffffffffffffffff167fbc7cd75a20ee27fd9adebab32041f755214dbc6bffa90cc0225b39da2e5c2d3b60405160405180910390a25050565b60007f337c729c04082e3bdd94ba7d2b5a8a642f3a138702366a91707825373a2029ba90508181555050565b60007f7050c9e0f4ca769c69bd3a8ef740bc37934f8e2c036e5a723fd8ee048ed3f8c390508181555050565b60008135905061053081610654565b92915050565b60006020828403121561054857600080fd5b600061055684828501610521565b91505092915050565b61056881610616565b82525050565b61057781610628565b82525050565b600061058a60008361060b565b9150600082019050919050565b60006105a28261057d565b9150819050919050565b60006020820190506105c1600083018461055f565b92915050565b60006040820190506105dc600083018561055f565b6105e9602083018461055f565b9392505050565b6000602082019050610605600083018461056e565b92915050565b600081905092915050565b600061062182610634565b9050919050565b60008115159050919050565b600073ffffffffffffffffffffffffffffffffffffffff82169050919050565b61065d81610616565b811461066857600080fd5b5056fea2646970667358221220414e3e684aed878041a277f11c75b5771f1bc7b22b57060cf09c4e8eba92b30864736f6c63430008000033",
  "immutableReferences": {},
  "source": "// SPDX-License-Identifier: GPL-3.0\n\npragma solidity ^0.8.0;\n\nimport './UpgradeabilityProxy.sol';\n\n/**\n * @title OwnedUpgradeabilityProxy\n * @dev This contract combines an upgradeability proxy with basic authorization control functionalities\n */\ncontract OwnedUpgradeabilityProxy is UpgradeabilityProxy {\n  /**\n  * @dev Event to show ownership has been transferred\n  * @param previousOwner representing the address of the previous owner\n  * @param newOwner representing the address of the new owner\n  */\n  event ProxyOwnershipTransferred(address previousOwner, address newOwner);\n\n  // Storage position of the owner of the contract\n  bytes32 private constant proxyOwnerPosition = keccak256(\"org.zeppelinos.proxy.owner\");\n\n  /**\n  * @dev the constructor sets the original owner of the contract to the sender account.\n  */\n  function ownedUpgradeabilityProxy() public {\n    setUpgradeabilityOwner(msg.sender);\n  }\n\n  /**\n  * @dev Throws if called by any account other than the owner.\n  */\n  modifier onlyProxyOwner() {\n    require(msg.sender == proxyOwner());\n    _;\n  }\n\n  function proxyOwner() public view returns (address owner) {\n    bytes32 position = proxyOwnerPosition;\n    assembly {\n      owner := sload(position)\n    }\n  }\n\n  /**\n   * @dev Sets the address of the owner\n   */\n  function setUpgradeabilityOwner(address newProxyOwner) internal {\n    bytes32 position = proxyOwnerPosition;\n    assembly {\n      sstore(position, newProxyOwner)\n    }\n  }\n\n  /**\n   * @dev Allows the current owner to transfer control of the contract to a newOwner.\n   * @param newOwner The address to transfer ownership to.\n   */\n  function transferProxyOwnership(address newOwner) public onlyProxyOwner {\n    require(newOwner != address(0));\n    emit ProxyOwnershipTransferred(proxyOwner(), newOwner);\n    setUpgradeabilityOwner(newOwner);\n  }\n\n  /**\n   * @dev Allows the proxy owner to upgrade the current version of the proxy.\n   * @param implementation representing the address of the new implementation to be set.\n   */\n  function upgradeTo(address implementation) public onlyProxyOwner {\n    _upgradeTo(implementation);\n  }\n\n  function upgradeToAndCall(address implementation) payable public onlyProxyOwner returns (bool){\n    upgradeTo(implementation);\n  (bool success,)= (address(this).call{value:(msg.value)}(\"\"));\n    require (success);\n    return true;\n  }\n}\n",
  "sourcePath": "/home/gokulalex/stakepool/pool/contracts/OwnedUpgradeabilityProxy.sol",
  "compiler": {
    "name": "solc",
    "version": "0.8.0+commit.c7dfd78e.Emscripten.clang"
  },
  "schemaVersion": "3.3.1",
  "updatedAt": "2021-04-22T07:18:44.477Z",
  "devdoc": {
    "details": "This contract combines an upgradeability proxy with basic authorization control functionalities",
    "events": {
      "ProxyOwnershipTransferred(address,address)": {
        "details": "Event to show ownership has been transferred",
        "params": {
          "newOwner": "representing the address of the new owner",
          "previousOwner": "representing the address of the previous owner"
        }
      }
    },
    "kind": "dev",
    "methods": {
      "implementation()": {
        "details": "Tells the address of the implementation where every call will be delegated.",
        "returns": {
          "impl": "address of the implementation to which it will be delegated"
        }
      },
      "ownedUpgradeabilityProxy()": {
        "details": "the constructor sets the original owner of the contract to the sender account."
      },
      "transferProxyOwnership(address)": {
        "details": "Allows the current owner to transfer control of the contract to a newOwner.",
        "params": {
          "newOwner": "The address to transfer ownership to."
        }
      },
      "upgradeTo(address)": {
        "details": "Allows the proxy owner to upgrade the current version of the proxy.",
        "params": {
          "implementation": "representing the address of the new implementation to be set."
        }
      },
      "upgradeabilityProxy()": {
        "details": "Constructor function"
      }
    },
    "title": "OwnedUpgradeabilityProxy",
    "version": 1
  },
  "userdoc": {
    "kind": "user",
    "methods": {},
    "version": 1
  }
}