{
  "contractName": "Stakingpool",
  "abi": [
    {
      "anonymous": false,
      "inputs": [
        {
          "indexed": false,
          "internalType": "address",
          "name": "sender",
          "type": "address"
        },
        {
          "indexed": false,
          "internalType": "uint256",
          "name": "amount",
          "type": "uint256"
        }
      ],
      "name": "NotifyStaked",
      "type": "event"
    },
    {
      "anonymous": false,
      "inputs": [
        {
          "indexed": false,
          "internalType": "address",
          "name": "sender",
          "type": "address"
        },
        {
          "indexed": false,
          "internalType": "uint256",
          "name": "amount",
          "type": "uint256"
        }
      ],
      "name": "NotifyUnStaked",
      "type": "event"
    },
    {
      "anonymous": false,
      "inputs": [
        {
          "indexed": false,
          "internalType": "address",
          "name": "sender",
          "type": "address"
        },
        {
          "indexed": false,
          "internalType": "uint256",
          "name": "Balance",
          "type": "uint256"
        }
      ],
      "name": "Notifyclaimed",
      "type": "event"
    },
    {
      "anonymous": false,
      "inputs": [
        {
          "indexed": false,
          "internalType": "address",
          "name": "account",
          "type": "address"
        }
      ],
      "name": "Paused",
      "type": "event"
    },
    {
      "anonymous": false,
      "inputs": [
        {
          "indexed": false,
          "internalType": "address",
          "name": "account",
          "type": "address"
        }
      ],
      "name": "Unpaused",
      "type": "event"
    },
    {
      "inputs": [
        {
          "internalType": "address",
          "name": "",
          "type": "address"
        }
      ],
      "name": "DROI",
      "outputs": [
        {
          "internalType": "uint256",
          "name": "",
          "type": "uint256"
        }
      ],
      "stateMutability": "view",
      "type": "function"
    },
    {
      "inputs": [
        {
          "internalType": "address",
          "name": "",
          "type": "address"
        }
      ],
      "name": "MROI",
      "outputs": [
        {
          "internalType": "uint256",
          "name": "",
          "type": "uint256"
        }
      ],
      "stateMutability": "view",
      "type": "function"
    },
    {
      "inputs": [
        {
          "internalType": "address",
          "name": "",
          "type": "address"
        }
      ],
      "name": "ROI",
      "outputs": [
        {
          "internalType": "uint256",
          "name": "",
          "type": "uint256"
        }
      ],
      "stateMutability": "view",
      "type": "function"
    },
    {
      "inputs": [],
      "name": "StakePeriod",
      "outputs": [
        {
          "internalType": "uint256",
          "name": "",
          "type": "uint256"
        }
      ],
      "stateMutability": "view",
      "type": "function"
    },
    {
      "inputs": [
        {
          "internalType": "address",
          "name": "",
          "type": "address"
        }
      ],
      "name": "claimable",
      "outputs": [
        {
          "internalType": "uint256",
          "name": "",
          "type": "uint256"
        }
      ],
      "stateMutability": "view",
      "type": "function"
    },
    {
      "inputs": [
        {
          "internalType": "address",
          "name": "",
          "type": "address"
        }
      ],
      "name": "currentstakeyields",
      "outputs": [
        {
          "internalType": "uint256",
          "name": "",
          "type": "uint256"
        }
      ],
      "stateMutability": "view",
      "type": "function"
    },
    {
      "inputs": [],
      "name": "paused",
      "outputs": [
        {
          "internalType": "bool",
          "name": "",
          "type": "bool"
        }
      ],
      "stateMutability": "view",
      "type": "function"
    },
    {
      "inputs": [
        {
          "internalType": "address",
          "name": "",
          "type": "address"
        }
      ],
      "name": "stakedBalances",
      "outputs": [
        {
          "internalType": "uint256",
          "name": "",
          "type": "uint256"
        }
      ],
      "stateMutability": "view",
      "type": "function"
    },
    {
      "inputs": [
        {
          "internalType": "address",
          "name": "",
          "type": "address"
        }
      ],
      "name": "stakedShares",
      "outputs": [
        {
          "internalType": "uint256",
          "name": "",
          "type": "uint256"
        }
      ],
      "stateMutability": "view",
      "type": "function"
    },
    {
      "inputs": [],
      "name": "totalStakedMcH",
      "outputs": [
        {
          "internalType": "uint256",
          "name": "",
          "type": "uint256"
        }
      ],
      "stateMutability": "view",
      "type": "function"
    },
    {
      "inputs": [],
      "name": "totalStakedamount",
      "outputs": [
        {
          "internalType": "uint256",
          "name": "",
          "type": "uint256"
        }
      ],
      "stateMutability": "view",
      "type": "function"
    },
    {
      "inputs": [
        {
          "internalType": "uint256",
          "name": "",
          "type": "uint256"
        }
      ],
      "name": "users",
      "outputs": [
        {
          "internalType": "address",
          "name": "",
          "type": "address"
        }
      ],
      "stateMutability": "view",
      "type": "function"
    },
    {
      "inputs": [
        {
          "internalType": "address",
          "name": "",
          "type": "address"
        }
      ],
      "name": "vested",
      "outputs": [
        {
          "internalType": "uint256",
          "name": "",
          "type": "uint256"
        }
      ],
      "stateMutability": "view",
      "type": "function"
    },
    {
      "inputs": [
        {
          "internalType": "address",
          "name": "_mchtoken",
          "type": "address"
        },
        {
          "internalType": "address",
          "name": "_mcftoken",
          "type": "address"
        }
      ],
      "name": "Initialize",
      "outputs": [],
      "stateMutability": "nonpayable",
      "type": "function"
    },
    {
      "inputs": [
        {
          "internalType": "uint256",
          "name": "amount",
          "type": "uint256"
        }
      ],
      "name": "Approvestake",
      "outputs": [],
      "stateMutability": "nonpayable",
      "type": "function"
    },
    {
      "inputs": [
        {
          "internalType": "uint256",
          "name": "amount",
          "type": "uint256"
        }
      ],
      "name": "unstake",
      "outputs": [],
      "stateMutability": "nonpayable",
      "type": "function"
    },
    {
      "inputs": [
        {
          "internalType": "address",
          "name": "user",
          "type": "address"
        }
      ],
      "name": "calcRewards",
      "outputs": [
        {
          "internalType": "uint256",
          "name": "",
          "type": "uint256"
        }
      ],
      "stateMutability": "view",
      "type": "function"
    },
    {
      "inputs": [],
      "name": "distributeRewards",
      "outputs": [],
      "stateMutability": "nonpayable",
      "type": "function"
    },
    {
      "inputs": [],
      "name": "Harvest",
      "outputs": [],
      "stateMutability": "nonpayable",
      "type": "function"
    },
    {
      "inputs": [],
      "name": "calcROI",
      "outputs": [],
      "stateMutability": "nonpayable",
      "type": "function"
    }
  ],
  "bytecode": "0x608060405234801561001057600080fd5b506123a2806100206000396000f3fe608060405234801561001057600080fd5b506004361061012c5760003560e01c80635c975abb116100ad57806380ededfa1161007157806380ededfa14610331578063ae1c78681461034f578063ce4483f91461037f578063dc90fed0146103af578063e893a8a1146103cb5761012c565b80635c975abb1461028b57806367719223146102a95780636f4a2cd0146102d95780637102b728146102e3578063789982c0146103135761012c565b80632e17de78116100f45780632e17de78146101e7578063365b98b2146102035780633d64e17a14610233578063402914f51461023d57806352a342a41461026d5761012c565b8063091b63c1146101315780630eb0c8f31461014d57806313677f941461017d5780631460fa87146101ad57806319d7c76e146101dd575b600080fd5b61014b60048036038101906101469190611d3f565b6103fb565b005b61016760048036038101906101629190611cb1565b610738565b6040516101749190612140565b60405180910390f35b61019760048036038101906101929190611cb1565b610750565b6040516101a49190612140565b60405180910390f35b6101c760048036038101906101c29190611cb1565b610768565b6040516101d49190612140565b60405180910390f35b6101e5610780565b005b61020160048036038101906101fc9190611d3f565b610abc565b005b61021d60048036038101906102189190611d3f565b610eb0565b60405161022a9190611fca565b60405180910390f35b61023b610eef565b005b61025760048036038101906102529190611cb1565b61121d565b6040516102649190612140565b60405180910390f35b610275611235565b6040516102829190612140565b60405180910390f35b61029361123b565b6040516102a09190612045565b60405180910390f35b6102c360048036038101906102be9190611cb1565b611252565b6040516102d09190612140565b60405180910390f35b6102e161126a565b005b6102fd60048036038101906102f89190611cb1565b6115dc565b60405161030a9190612140565b60405180910390f35b61031b6115f4565b6040516103289190612140565b60405180910390f35b6103396115fa565b6040516103469190612140565b60405180910390f35b61036960048036038101906103649190611cb1565b611600565b6040516103769190612140565b60405180910390f35b61039960048036038101906103949190611cb1565b611757565b6040516103a69190612140565b60405180910390f35b6103c960048036038101906103c49190611cda565b61176f565b005b6103e560048036038101906103e09190611cb1565b611917565b6040516103f29190612140565b60405180910390f35b61040361123b565b15610443576040517f08c379a000000000000000000000000000000000000000000000000000000000815260040161043a906120e0565b60405180910390fd5b6000811161045057600080fd5b609960009054906101000a900473ffffffffffffffffffffffffffffffffffffffff1673ffffffffffffffffffffffffffffffffffffffff166323b872dd3330846040518463ffffffff1660e01b81526004016104af93929190611fe5565b602060405180830381600087803b1580156104c957600080fd5b505af11580156104dd573d6000803e3d6000fd5b505050506040513d601f19601f820116820180604052508101906105019190611d16565b506000609c60003373ffffffffffffffffffffffffffffffffffffffff1673ffffffffffffffffffffffffffffffffffffffff168152602001908152602001600020541415610554576105533361192f565b5b6105a681609c60003373ffffffffffffffffffffffffffffffffffffffff1673ffffffffffffffffffffffffffffffffffffffff168152602001908152602001600020546119aa90919063ffffffff16565b609c60003373ffffffffffffffffffffffffffffffffffffffff1673ffffffffffffffffffffffffffffffffffffffff16815260200190815260200160002081905550600061066461060383609e546119aa90919063ffffffff16565b6106566064609c60003373ffffffffffffffffffffffffffffffffffffffff1673ffffffffffffffffffffffffffffffffffffffff168152602001908152602001600020546119c090919063ffffffff16565b6119d690919063ffffffff16565b90506106b881609d60003373ffffffffffffffffffffffffffffffffffffffff1673ffffffffffffffffffffffffffffffffffffffff168152602001908152602001600020546119aa90919063ffffffff16565b609d60003373ffffffffffffffffffffffffffffffffffffffff1673ffffffffffffffffffffffffffffffffffffffff168152602001908152602001600020819055507fc56736dcf0d4f5e82a639a9147b6843027755e445f6c6379e64fafaf677fc95f338360405161072c92919061201c565b60405180910390a15050565b609d6020528060005260406000206000915090505481565b60a26020528060005260406000206000915090505481565b609c6020528060005260406000206000915090505481565b609860009054906101000a900473ffffffffffffffffffffffffffffffffffffffff1673ffffffffffffffffffffffffffffffffffffffff163373ffffffffffffffffffffffffffffffffffffffff1614610810576040517f08c379a000000000000000000000000000000000000000000000000000000000815260040161080790612060565b60405180910390fd5b6097544211610854576040517f08c379a000000000000000000000000000000000000000000000000000000000815260040161084b906120a0565b60405180910390fd5b60005b60a580549050811015610ab957600060a582815481106108a0577f4e487b7100000000000000000000000000000000000000000000000000000000600052603260045260246000fd5b9060005260206000200160009054906101000a900473ffffffffffffffffffffffffffffffffffffffff1690506109346064610926609e54609b60008673ffffffffffffffffffffffffffffffffffffffff1673ffffffffffffffffffffffffffffffffffffffff168152602001908152602001600020546119d690919063ffffffff16565b6119c090919063ffffffff16565b60a260008373ffffffffffffffffffffffffffffffffffffffff1673ffffffffffffffffffffffffffffffffffffffff168152602001908152602001600020819055506109ca600c60a260008473ffffffffffffffffffffffffffffffffffffffff1673ffffffffffffffffffffffffffffffffffffffff168152602001908152602001600020546119d690919063ffffffff16565b60a160008373ffffffffffffffffffffffffffffffffffffffff1673ffffffffffffffffffffffffffffffffffffffff16815260200190815260200160002081905550610a6161016d60a260008473ffffffffffffffffffffffffffffffffffffffff1673ffffffffffffffffffffffffffffffffffffffff168152602001908152602001600020546119d690919063ffffffff16565b60a060008373ffffffffffffffffffffffffffffffffffffffff1673ffffffffffffffffffffffffffffffffffffffff1681526020019081526020016000208190555050600181610ab2919061216c565b9050610857565b50565b610ac461123b565b15610b04576040517f08c379a0000000000000000000000000000000000000000000000000000000008152600401610afb906120e0565b60405180910390fd5b6097544211610b48576040517f08c379a0000000000000000000000000000000000000000000000000000000008152600401610b3f906120a0565b60405180910390fd5b80609c60003373ffffffffffffffffffffffffffffffffffffffff1673ffffffffffffffffffffffffffffffffffffffff168152602001908152602001600020541015610bca576040517f08c379a0000000000000000000000000000000000000000000000000000000008152600401610bc1906120c0565b60405180910390fd5b609960009054906101000a900473ffffffffffffffffffffffffffffffffffffffff1673ffffffffffffffffffffffffffffffffffffffff1663a9059cbb33836040518363ffffffff1660e01b8152600401610c2792919061201c565b602060405180830381600087803b158015610c4157600080fd5b505af1158015610c55573d6000803e3d6000fd5b505050506040513d601f19601f82011682018060405250810190610c799190611d16565b50610ccc81609c60003373ffffffffffffffffffffffffffffffffffffffff1673ffffffffffffffffffffffffffffffffffffffff168152602001908152602001600020546119ec90919063ffffffff16565b609c60003373ffffffffffffffffffffffffffffffffffffffff1673ffffffffffffffffffffffffffffffffffffffff168152602001908152602001600020819055506000610d8a610d2983609e546119ec90919063ffffffff16565b610d7c6064609c60003373ffffffffffffffffffffffffffffffffffffffff1673ffffffffffffffffffffffffffffffffffffffff168152602001908152602001600020546119c090919063ffffffff16565b6119d690919063ffffffff16565b9050610dde81609d60003373ffffffffffffffffffffffffffffffffffffffff1673ffffffffffffffffffffffffffffffffffffffff168152602001908152602001600020546119ec90919063ffffffff16565b609d60003373ffffffffffffffffffffffffffffffffffffffff1673ffffffffffffffffffffffffffffffffffffffff168152602001908152602001600020819055506000609c60003373ffffffffffffffffffffffffffffffffffffffff1673ffffffffffffffffffffffffffffffffffffffff168152602001908152602001600020541415610e7357610e7233611a02565b5b7ff0e91367580c56e4492696972a791ee0ea6c1b7cd991e98fb05acd88c438554f3383604051610ea492919061201c565b60405180910390a15050565b60a58181548110610ec057600080fd5b906000526020600020016000915054906101000a900473ffffffffffffffffffffffffffffffffffffffff1681565b610ef761123b565b15610f37576040517f08c379a0000000000000000000000000000000000000000000000000000000008152600401610f2e906120e0565b60405180910390fd5b60026001541415610f7d576040517f08c379a0000000000000000000000000000000000000000000000000000000008152600401610f7490612120565b60405180910390fd5b60026001819055506097544211610fc9576040517f08c379a0000000000000000000000000000000000000000000000000000000008152600401610fc0906120a0565b60405180910390fd5b600060a360003373ffffffffffffffffffffffffffffffffffffffff1673ffffffffffffffffffffffffffffffffffffffff16815260200190815260200160002054905060008111611050576040517f08c379a000000000000000000000000000000000000000000000000000000000815260040161104790612080565b60405180910390fd5b609a60009054906101000a900473ffffffffffffffffffffffffffffffffffffffff1673ffffffffffffffffffffffffffffffffffffffff1663a9059cbb33836040518363ffffffff1660e01b81526004016110ad92919061201c565b602060405180830381600087803b1580156110c757600080fd5b505af11580156110db573d6000803e3d6000fd5b505050506040513d601f19601f820116820180604052508101906110ff9190611d16565b5061115281609b60003373ffffffffffffffffffffffffffffffffffffffff1673ffffffffffffffffffffffffffffffffffffffff168152602001908152602001600020546119ec90919063ffffffff16565b609b60003373ffffffffffffffffffffffffffffffffffffffff1673ffffffffffffffffffffffffffffffffffffffff16815260200190815260200160002081905550600060a360003373ffffffffffffffffffffffffffffffffffffffff1673ffffffffffffffffffffffffffffffffffffffff168152602001908152602001600020819055507fa3c231ff0a3f5311deb1bc60b33827c06f9c4f088c392e494bd71545f5e74664338260405161120b92919061201c565b60405180910390a15060018081905550565b60a36020528060005260406000206000915090505481565b609f5481565b6000606560009054906101000a900460ff16905090565b609b6020528060005260406000206000915090505481565b60975442116112ae576040517f08c379a00000000000000000000000000000000000000000000000000000000081526004016112a5906120a0565b60405180910390fd5b609860009054906101000a900473ffffffffffffffffffffffffffffffffffffffff1673ffffffffffffffffffffffffffffffffffffffff163373ffffffffffffffffffffffffffffffffffffffff161461133e576040517f08c379a000000000000000000000000000000000000000000000000000000000815260040161133590612060565b60405180910390fd5b60005b60a5805490508110156115d957600060a5828154811061138a577f4e487b7100000000000000000000000000000000000000000000000000000000600052603260045260246000fd5b9060005260206000200160009054906101000a900473ffffffffffffffffffffffffffffffffffffffff16905060006113c282611600565b905061141681609b60008573ffffffffffffffffffffffffffffffffffffffff1673ffffffffffffffffffffffffffffffffffffffff168152602001908152602001600020546119aa90919063ffffffff16565b609b60008473ffffffffffffffffffffffffffffffffffffffff1673ffffffffffffffffffffffffffffffffffffffff168152602001908152602001600020819055506114ac6002609b60008573ffffffffffffffffffffffffffffffffffffffff1673ffffffffffffffffffffffffffffffffffffffff168152602001908152602001600020546119d690919063ffffffff16565b60a460008473ffffffffffffffffffffffffffffffffffffffff1673ffffffffffffffffffffffffffffffffffffffff1681526020019081526020016000208190555061158060a460008473ffffffffffffffffffffffffffffffffffffffff1673ffffffffffffffffffffffffffffffffffffffff16815260200190815260200160002054609b60008573ffffffffffffffffffffffffffffffffffffffff1673ffffffffffffffffffffffffffffffffffffffff168152602001908152602001600020546119ec90919063ffffffff16565b60a360008473ffffffffffffffffffffffffffffffffffffffff1673ffffffffffffffffffffffffffffffffffffffff1681526020019081526020016000208190555050506001816115d2919061216c565b9050611341565b50565b60a46020528060005260406000206000915090505481565b609e5481565b60975481565b60006097544211611646576040517f08c379a000000000000000000000000000000000000000000000000000000000815260040161163d906120a0565b60405180910390fd5b6000609a60009054906101000a900473ffffffffffffffffffffffffffffffffffffffff1673ffffffffffffffffffffffffffffffffffffffff166318160ddd6040518163ffffffff1660e01b815260040160206040518083038186803b1580156116b057600080fd5b505afa1580156116c4573d6000803e3d6000fd5b505050506040513d601f19601f820116820180604052508101906116e89190611d68565b905061174f606461174183609d60008873ffffffffffffffffffffffffffffffffffffffff1673ffffffffffffffffffffffffffffffffffffffff168152602001908152602001600020546119c090919063ffffffff16565b6119d690919063ffffffff16565b915050919050565b60a16020528060005260406000206000915090505481565b600060019054906101000a900460ff1680611795575060008054906101000a900460ff16155b6117d4576040517f08c379a00000000000000000000000000000000000000000000000000000000081526004016117cb90612100565b60405180910390fd5b60008060019054906101000a900460ff161590508015611824576001600060016101000a81548160ff02191690831515021790555060016000806101000a81548160ff0219169083151502179055505b82609960006101000a81548173ffffffffffffffffffffffffffffffffffffffff021916908373ffffffffffffffffffffffffffffffffffffffff16021790555081609a60006101000a81548173ffffffffffffffffffffffffffffffffffffffff021916908373ffffffffffffffffffffffffffffffffffffffff16021790555033609860006101000a81548173ffffffffffffffffffffffffffffffffffffffff021916908373ffffffffffffffffffffffffffffffffffffffff1602179055506213c68060978190555080156119125760008060016101000a81548160ff0219169083151502179055505b505050565b60a06020528060005260406000206000915090505481565b600061193a82611b83565b509050806119a65760a5829080600181540180825580915050600190039060005260206000200160009091909190916101000a81548173ffffffffffffffffffffffffffffffffffffffff021916908373ffffffffffffffffffffffffffffffffffffffff1602179055505b5050565b600081836119b8919061216c565b905092915050565b600081836119ce91906121f3565b905092915050565b600081836119e491906121c2565b905092915050565b600081836119fa919061224d565b905092915050565b600080611a0e83611b83565b915091508115611b7e5760a5600160a580549050611a2c919061224d565b81548110611a63577f4e487b7100000000000000000000000000000000000000000000000000000000600052603260045260246000fd5b9060005260206000200160009054906101000a900473ffffffffffffffffffffffffffffffffffffffff1660a58281548110611ac8577f4e487b7100000000000000000000000000000000000000000000000000000000600052603260045260246000fd5b9060005260206000200160006101000a81548173ffffffffffffffffffffffffffffffffffffffff021916908373ffffffffffffffffffffffffffffffffffffffff16021790555060a5805480611b48577f4e487b7100000000000000000000000000000000000000000000000000000000600052603160045260246000fd5b6001900381819060005260206000200160006101000a81549073ffffffffffffffffffffffffffffffffffffffff021916905590555b505050565b60008060005b60a580549050811015611c4f5760a58181548110611bd0577f4e487b7100000000000000000000000000000000000000000000000000000000600052603260045260246000fd5b9060005260206000200160009054906101000a900473ffffffffffffffffffffffffffffffffffffffff1673ffffffffffffffffffffffffffffffffffffffff168473ffffffffffffffffffffffffffffffffffffffff161415611c3b576001819250925050611c58565b600181611c48919061216c565b9050611b89565b50600080915091505b915091565b600081359050611c6c81612327565b92915050565b600081519050611c818161233e565b92915050565b600081359050611c9681612355565b92915050565b600081519050611cab81612355565b92915050565b600060208284031215611cc357600080fd5b6000611cd184828501611c5d565b91505092915050565b60008060408385031215611ced57600080fd5b6000611cfb85828601611c5d565b9250506020611d0c85828601611c5d565b9150509250929050565b600060208284031215611d2857600080fd5b6000611d3684828501611c72565b91505092915050565b600060208284031215611d5157600080fd5b6000611d5f84828501611c87565b91505092915050565b600060208284031215611d7a57600080fd5b6000611d8884828501611c9c565b91505092915050565b611d9a81612281565b82525050565b611da981612293565b82525050565b6000611dbc60228361215b565b91507f4f6e6c79206f776e65722063616e2063616c6c20746869732066756e6374696f60008301527f6e2e0000000000000000000000000000000000000000000000000000000000006020830152604082019050919050565b6000611e2260138361215b565b91507f62616c616e63652063616e6e6f742062652030000000000000000000000000006000830152602082019050919050565b6000611e6260198361215b565b91507f5374616b65506572696f64206e6f7420636f6d706c65746564000000000000006000830152602082019050919050565b6000611ea2601d8361215b565b91507f756e7374616b696e672062616c616e63652063616e6e6f7420626520300000006000830152602082019050919050565b6000611ee260108361215b565b91507f5061757361626c653a20706175736564000000000000000000000000000000006000830152602082019050919050565b6000611f22602e8361215b565b91507f496e697469616c697a61626c653a20636f6e747261637420697320616c72656160008301527f647920696e697469616c697a65640000000000000000000000000000000000006020830152604082019050919050565b6000611f88601f8361215b565b91507f5265656e7472616e637947756172643a207265656e7472616e742063616c6c006000830152602082019050919050565b611fc4816122bf565b82525050565b6000602082019050611fdf6000830184611d91565b92915050565b6000606082019050611ffa6000830186611d91565b6120076020830185611d91565b6120146040830184611fbb565b949350505050565b60006040820190506120316000830185611d91565b61203e6020830184611fbb565b9392505050565b600060208201905061205a6000830184611da0565b92915050565b6000602082019050818103600083015261207981611daf565b9050919050565b6000602082019050818103600083015261209981611e15565b9050919050565b600060208201905081810360008301526120b981611e55565b9050919050565b600060208201905081810360008301526120d981611e95565b9050919050565b600060208201905081810360008301526120f981611ed5565b9050919050565b6000602082019050818103600083015261211981611f15565b9050919050565b6000602082019050818103600083015261213981611f7b565b9050919050565b60006020820190506121556000830184611fbb565b92915050565b600082825260208201905092915050565b6000612177826122bf565b9150612182836122bf565b9250827fffffffffffffffffffffffffffffffffffffffffffffffffffffffffffffffff038211156121b7576121b66122c9565b5b828201905092915050565b60006121cd826122bf565b91506121d8836122bf565b9250826121e8576121e76122f8565b5b828204905092915050565b60006121fe826122bf565b9150612209836122bf565b9250817fffffffffffffffffffffffffffffffffffffffffffffffffffffffffffffffff0483118215151615612242576122416122c9565b5b828202905092915050565b6000612258826122bf565b9150612263836122bf565b925082821015612276576122756122c9565b5b828203905092915050565b600061228c8261229f565b9050919050565b60008115159050919050565b600073ffffffffffffffffffffffffffffffffffffffff82169050919050565b6000819050919050565b7f4e487b7100000000000000000000000000000000000000000000000000000000600052601160045260246000fd5b7f4e487b7100000000000000000000000000000000000000000000000000000000600052601260045260246000fd5b61233081612281565b811461233b57600080fd5b50565b61234781612293565b811461235257600080fd5b50565b61235e816122bf565b811461236957600080fd5b5056fea26469706673582212204b931860d38ba5921475c4708318193ec2d81977cd50de1eea4ad9a4146389b764736f6c63430008000033",
  "immutableReferences": {},
  "source": "   // SPDX-License-Identifier: GPL-3.0\n\npragma solidity ^0.8.0;\n\nimport \"./External/SafeMathUpgradeable.sol\";\nimport \"./External/PausableUpgradeable.sol\";\nimport \"./External/IERC20Upgradeable.sol\";\nimport \"./External/ReentrancyGuardUpgradeable.sol\";\nimport \"./External/Initializable.sol\";\nimport \"./External/OwnableUpgradeable.sol\";\nimport \"./External/IERC20.sol\";\n\n\n/* @title Staking Pool Contract\n * Open Zeppelin Pausable  */\n\ncontract Stakingpool is Initializable,ReentrancyGuardUpgradeable,PausableUpgradeable{\n  \n  using SafeMathUpgradeable for uint;\n  \n  uint public StakePeriod;\n  \n  address private owner;\n\n  IERC20 mchtoken;\n  IERC20Upgradeable mcftoken;\n  \n  \n /** @dev track total current stake yields of a user */\n   mapping(address => uint) public currentstakeyields;\n   \n   /** @dev track Stakedbalances of user*/\n  mapping(address => uint) public stakedBalances;\n  \n  /** @dev track StakedShares of user */\n  mapping(address => uint) public stakedShares;\n  \n  /** @dev track total staked amount of tokens of all users */\n  uint public totalStakedMcH;\n  \n  /** @dev track total staked value of all users */\n  uint public totalStakedamount;\n  \n /** @dev track Daily Rate of Investment */\n mapping(address => uint) public DROI;\n  \n /** @dev track Monthly Rate of Investment */\n  mapping(address => uint) public MROI;\n  \n /** @dev track Annual Rate of Investment */ \n  mapping(address => uint) public ROI;\n  \n  /** @dev track claimable tokens */ \n  mapping(address => uint) public claimable;\n  \n  /** @dev track vested tokens */  \n  mapping(address => uint) public vested;\n  \n   /** @dev track users\n    * users must be tracked in this array because mapping is not iterable */\n  address[] public users;\n  \n   /** @dev track index by address added to users */\n  mapping(address => uint) private userIndex;\n  \n \n /** @dev trigger notification of staked amount\n    * @param sender       msg.sender for the transaction\n    * @param amount       msg.value for the transaction\n    */\n  event NotifyStaked(address sender, uint amount);\n  \n  /** @dev trigger notification of unstaked amount\n    * @param sender       msg.sender for the transaction\n    * @param amount       msg.value for the transaction\n    */\n  event NotifyUnStaked(address sender, uint amount);\n\n\n  // @dev trigger notification of claimed amount\n  event Notifyclaimed(address sender,uint Balance);\n  \n  mapping(address=> uint) internal creationTime;\n  \n \n  modifier onlyOwner {\n        require(\n            msg.sender == owner,\n            \"Only owner can call this function.\"\n        );\n        _;\n    }\n  \n     /**\n     * @dev Throws if called before stakingperiod\n     */\n    modifier onlyAfter() {\n        \n       require(block.timestamp > StakePeriod ,\"StakePeriod not completed\");\n        _;\n    }\n   \n\n // @dev contract Initializable\n    \n    function Initialize (address _mchtoken, address _mcftoken) public initializer {\n    \n     mchtoken = IERC20(_mchtoken);\n     mcftoken = IERC20Upgradeable(_mcftoken);\n     owner = msg.sender;\n     StakePeriod = 15 days;\n    \n    }\n\n  /************************ USER MANAGEMENT ***********************/\n\n  /** @dev test if user is in current user list\n    * @param user address of user to test if in list\n    * @return true if user is on record, otherwise false\n    */\n  function isUser(address user)\n       internal\n       view\n       returns(bool, uint256)\n   {\n       for (uint256 i = 0; i < users.length; i += 1){\n           if (user == users[i]) return (true, i);\n       }\n       return (false, 0);\n   }\n    \n    /** @dev add a user to users array\n    * @param user address of user to add to the list\n    */\n  \n    function addUser(address user)\n       internal\n   {\n       (bool _isUser, ) = isUser(user);\n       if(!_isUser) users.push(user);\n   }\n   \n   /** @dev remove a user from users array\n    * @param user address of user to remove from the list\n    */\n    \n   function removeUser(address user)\n       internal\n   {\n       (bool isUser, uint256 i) = isUser(user);\n       if(isUser){\n           users[i] = users[users.length - 1];\n           users.pop();\n       }\n   }\n  /************************ USER MANAGEMENT ***********************/\n\n  \n   /** @dev stake funds to Contract\n    */\n  function Approvestake(uint amount) external whenNotPaused {\n     \n      require(amount > 0);\n      \n     // Transfer Mock  tokens to this contract for staking\n     mchtoken.transferFrom(msg.sender, address(this), amount);\n    \n    if(stakedBalances[msg.sender] == 0) addUser(msg.sender);\n       stakedBalances[msg.sender] = stakedBalances[msg.sender].add(amount);\n       \n       \n    uint shares = (stakedBalances[msg.sender].mul(100)).div(totalStakedMcH.add(amount));\n    stakedShares[msg.sender] = stakedShares[msg.sender].add(shares);\n    \n    emit NotifyStaked(msg.sender, amount);\n  }\n\n\n  /** @dev unstake funds from Pool\n    */\n   function unstake(uint amount) external whenNotPaused onlyAfter(){\n    \n    require(stakedBalances[msg.sender] >= amount, \"unstaking balance cannot be 0\");\n\n    // Transfer Mocktokens \n    mchtoken.transfer(msg.sender, amount);\n\n    // Reset staking balance\n    stakedBalances[msg.sender] = stakedBalances[msg.sender].sub(amount);\n    \n    uint shares = (stakedBalances[msg.sender].mul(100)).div(totalStakedMcH.sub(amount));\n    stakedShares[msg.sender] = stakedShares[msg.sender].sub(shares);\n    \n    if(stakedBalances[msg.sender] == 0) removeUser(msg.sender);\n\n    emit NotifyUnStaked(msg.sender, amount);\n  \n   }\n\n  \n    function calcRewards(address user) public  onlyAfter() view  returns(uint) {\n     \n     uint mcftokensEmitted = mcftoken.totalSupply();\n     return (stakedShares[user].mul(mcftokensEmitted)).div(100);\n   \n        \n    }\n  \n  \n    function distributeRewards() external onlyAfter() onlyOwner()  {\n       \n       for (uint256 i = 0; i < users.length; i += 1) {\n           address user = users[i];\n           uint256 reward = calcRewards(user);\n           currentstakeyields[user] = currentstakeyields[user].add(reward);\n           vested[user] = currentstakeyields[user].div(2);\n           claimable[user]=currentstakeyields[user].sub(vested[user]);\n      }\n   }\n\n    function Harvest() external whenNotPaused nonReentrant() onlyAfter() {\n        \n        uint256 Balance = claimable[msg.sender];\n       // Require amount greater than 0\n        require(Balance > 0, \"balance cannot be 0\");\n        mcftoken.transfer(msg.sender, Balance);\n       // payable(msg.sender).transfer(balance);\n        currentstakeyields[msg.sender] = currentstakeyields[msg.sender].sub(Balance);\n        claimable[msg.sender] = 0;\n\n       emit Notifyclaimed(msg.sender,Balance);\n    \n    }\n  \n   function calcROI() external onlyOwner()  onlyAfter() {\n     \n      for (uint256 i = 0; i < users.length; i += 1) {\n        address user = users[i];\n        ROI[user] =  (currentstakeyields[user].div(totalStakedMcH)).mul(100);\n        MROI[user] = (ROI[user]).div(12);\n        DROI[user] = (ROI[user]).div(365);\n       \n       }\n    }\n\n}\n\n        \n   ",
  "sourcePath": "/home/gokulalex/stakepool/pool/contracts/Stakingpool.sol",
  "compiler": {
    "name": "solc",
    "version": "0.8.0+commit.c7dfd78e.Emscripten.clang"
  },
  "schemaVersion": "3.3.1",
  "updatedAt": "2021-04-22T07:18:44.481Z",
  "devdoc": {
    "events": {
      "NotifyStaked(address,uint256)": {
        "details": "trigger notification of staked amount",
        "params": {
          "amount": "msg.value for the transaction",
          "sender": "msg.sender for the transaction"
        }
      },
      "NotifyUnStaked(address,uint256)": {
        "details": "trigger notification of unstaked amount",
        "params": {
          "amount": "msg.value for the transaction",
          "sender": "msg.sender for the transaction"
        }
      }
    },
    "kind": "dev",
    "methods": {
      "Approvestake(uint256)": {
        "details": "stake funds to Contract"
      },
      "paused()": {
        "details": "Returns true if the contract is paused, and false otherwise."
      },
      "unstake(uint256)": {
        "details": "unstake funds from Pool"
      }
    },
    "stateVariables": {
      "DROI": {
        "details": "track Daily Rate of Investment "
      },
      "MROI": {
        "details": "track Monthly Rate of Investment "
      },
      "ROI": {
        "details": "track Annual Rate of Investment "
      },
      "claimable": {
        "details": "track claimable tokens "
      },
      "currentstakeyields": {
        "details": "track total current stake yields of a user "
      },
      "stakedBalances": {
        "details": "track Stakedbalances of user"
      },
      "stakedShares": {
        "details": "track StakedShares of user "
      },
      "totalStakedMcH": {
        "details": "track total staked amount of tokens of all users "
      },
      "totalStakedamount": {
        "details": "track total staked value of all users "
      },
      "userIndex": {
        "details": "track index by address added to users "
      },
      "users": {
        "details": "track users users must be tracked in this array because mapping is not iterable "
      },
      "vested": {
        "details": "track vested tokens "
      }
    },
    "version": 1
  },
  "userdoc": {
    "kind": "user",
    "methods": {},
    "version": 1
  }
}